:020000040000FA
:100000000C94E3000C940B010C940B010C940B0169
:100010000C940B010C940B010C940B010C940B0130
:100020000C940B010C9473070C940B010C940B01B2
:100030000C940B010C940B010C940B010C940B0110
:100040000C9429070C940B010C94F7060C94D10620
:100050000C940B010C940B010C940B010C940B01F0
:100060000C940B010C940B0100407A10F35A00A081
:10007000724E18090010A5D4E80000E87648170071
:1000800000E40B54020000CA9A3B000000E1F505B1
:10009000000080969800000040420F000000A086FB
:1000A00001000000102700000000E803000000002D
:1000B0006400000000000A000000000001000000D1
:1000C00000002C76D888DC674F0823DFC1DFAE59EB
:1000D000E1B1B796E5E3E453C63AE651997696E87E
:1000E000E6C28426EB898C9B62ED407C6FFCEFBC02
:1000F0009C9F40F2BAA56FA5F490055A2AF75C932D
:100100006B6CF9676DC11BFCE0E40D47FEF520E662
:10011000B500D0ED902E0300943577050080841E45
:10012000080000204E0A000000C80C333333330FA0
:10013000986E12831141EF8D2114893BE65516CF3D
:10014000FEE6DB18D1844B381BF77C1D901DA4BB49
:10015000E424203284725E228100C9F124ECA1E5FE
:100160003D2700000000250028002B0000000008AB
:10017000000201000003040700000000000000006E
:1001800000000000240027002A00000102030405EB
:1001900000000000230026002900040404040404D5
:1001A0000404020202020202030303030303010226
:1001B00004081020408001020408102001020408F5
:1001C0001020E5073D0D11241FBECFEFD8E0DEBFA4
:1001D000CDBF22E0AAE2B1E001C01D92AC33B2076C
:1001E000E1F711E0A0E0B1E0E6EEF6E202C0059032
:1001F0000D92AA32B107D9F710E0C2EED0E004C0E8
:100200002197FE010E945F11C13ED107C9F70E94EC
:1002100059080C9466130C940000CF92DF92EF9271
:10022000FF92CF93DF93B0911402A0E08111AB2F26
:100230008091150290E0880F991FAC0140575E4FE6
:10024000C0901A02D0901B02E0901C02F0901D0298
:1002500030E020E0FA01C591D491E881B90190E045
:1002600080E0EB23EA130AC02F5F3F4F6C157D053A
:100270008E059F0578F36FEF7FEFCB01DF91CF9174
:10028000FF90EF90DF90CF9008958230910538F085
:10029000880F991F880F991F05970197F1F7089507
:1002A000AF92BF92CF92DF92EF92FF920F931F9384
:1002B000CF93DF936C017B018B01040F151FEB01C2
:1002C0005E01AE18BF08C017D10759F06991D60179
:1002D000ED91FC910190F081E02DC6010995892BEB
:1002E00079F7C501DF91CF911F910F91FF90EF90AA
:1002F000DF90CF90BF90AF900895FC01538D448D57
:10030000252F30E0842F90E0821B930B541710F0C0
:10031000CF96089501970895FC01918D828D9817CD
:1003200061F0A28DAE0FBF2FB11D5D968C91928DA5
:100330009F5F9F73928F90E008958FEF9FEF0895D6
:10034000FC01918D828D981731F0828DE80FF11D9F
:10035000858D90E008958FEF9FEF0895FC01918DBA
:10036000228D892F90E0805C9F4F821B91098F73B3
:10037000992708958AE691E00E94AE0121E0892B39
:1003800009F420E0822F089580E090E0892B29F085
:100390000E94BA0181110C9400000895FC01A48D03
:1003A000A80FB92FB11DA35ABF4F2C91848D90E097
:1003B00001968F739927848FA689B7892C93A0897A
:1003C000B1898C91837080648C93938D848D981304
:1003D00006C00288F389E02D80818F7D8083089597
:1003E000EF92FF920F931F93CF93DF93EC0181E085
:1003F000888F9B8D8C8D98131AC0E889F98980812C
:1004000085FF15C09FB7F894EE89FF896083E8895E
:10041000F98980818370806480839FBF81E090E050
:10042000DF91CF911F910F91FF90EF900895F62EDD
:100430000B8D10E00F5F1F4F0F731127E02E8C8D77
:100440008E110CC00FB607FCFACFE889F9898081BC
:1004500085FFF5CFCE010E94CE01F1CFEB8DEC0FE1
:10046000FD2FF11DE35AFF4FF0829FB7F8940B8FD9
:10047000EA89FB8980818062CFCFCF93DF93EC0143
:10048000888D8823B9F0AA89BB89E889F9898C917C
:1004900085FD03C0808186FD0DC00FB607FCF7CF38
:1004A0008C9185FFF2CF808185FFEDCFCE010E9438
:1004B000CE01E9CFDF91CF910895833081F028F408
:1004C000813099F08230A9F008958730A9F0883002
:1004D000C9F08430B1F4809180008F7D03C0809199
:1004E00080008F7780938000089584B58F7784BDD6
:1004F000089584B58F7DFBCF8091B0008F77809376
:10050000B00008958091B0008F7DF9CFCF93DF9335
:10051000282F30E0F901E459FE4F8491F901E255AA
:10052000FE4FD491F901E656FE4FC491CC23A1F0C1
:1005300081110E945D02EC2FF0E0EE0FFF1FE057EB
:10054000FE4FA591B491EC91ED2381E090E009F488
:1005500080E0DF91CF91089580E090E0FACF1F9383
:10056000CF93DF93282F30E0F901E459FE4F8491B7
:10057000F901E255FE4FD491F901E656FE4FC491C0
:10058000CC23A9F0162F81110E945D02EC2FF0E020
:10059000EE0FFF1FEE59FE4FA591B4918FB7F8945F
:1005A000EC91111108C0D095DE23DC938FBFDF9151
:1005B000CF911F910895DE2BF8CFCF93DF939CB599
:1005C0009F7D9CBD9CB5937F9CBD9CB59C7F9CBD35
:1005D0009DB591609DBDC0E2D2E0682F8A810E94E6
:1005E000AF028C899D89DF91CF910C9445012091B8
:1005F00020023091210240912202509123022417BF
:10060000350721F0682F822F0C94AF020895CF9305
:1006100080913D01882391F0C09100016C2F84E00E
:100620000E94AF0281E0C827C093000181E090E002
:1006300090933F0180933E01CF91089560E084E064
:100640000E94AF02F3CFCF93DF9390E0FC01E2551D
:10065000FE4F249186569E4FFC0184918823C9F059
:1006600090E0880F991FFC01E058FE4FA591B491CE
:10067000FC01EE59FE4FC591D49161110DC09FB799
:10068000F8948C91209582238C9388812823288349
:100690009FBFDF91CF910895623051F49FB7F894D6
:1006A0003C91822F809583238C93E8812E2BEFCF72
:1006B0008FB7F894EC912E2B2C938FBFEACF3FB7D6
:1006C000F89480912B0190912C01A0912D01B09173
:1006D0002E0126B5A89B05C02F3F19F00196A11D3C
:1006E000B11D3FBFBA2FA92F982F8827BC01CD017C
:1006F000620F711D811D911D42E0660F771F881FDB
:10070000991F4A95D1F708958F929F92AF92BF9209
:10071000CF92DF92EF92FF924B015C010E945F0348
:100720006B017C010E945F036C197D098E099F0992
:10073000683E734081059105A8F321E0821A910873
:10074000A108B10888EEC80E83E0D81EE11CF11C98
:1007500081149104A104B10429F7FF90EF90DF9078
:10076000CF90BF90AF909F908F900895CF92DF92DF
:10077000EF92FF920F931F93CF93DF93CDB7DEB726
:10078000C054D1400FB6F894DEBF0FBECDBF2FB717
:10079000F8948091660190916701A0916801B091F1
:1007A00069012FBF40911602509117026091180203
:1007B000709119028C019D01041B150B260B370B40
:1007C000B901A801403D57406105710590F4809141
:1007D0001E02C05CDE4F0FB6F894DEBF0FBECDBF69
:1007E000DF91CF911F910F91FF90EF90DF90CF900D
:1007F00008958093160290931702A0931802B09365
:100800001902109211021092100210920F0210920F
:100810000E0210920D0262E0809112020E942303E8
:1008200061E070E080E090E00E94840361E08091EC
:1008300012020E94230360E0809112020E94AF0224
:100840008091130285518230E0F48BE291E10197AF
:10085000F1F762E0809112020E94230380911F024F
:1008600090E00E944501F89480E00E940D016F3FE6
:100870007F4F8F4F9F4F61F410921E02789480E05B
:10088000A8CF64E170E080E090E00E948403E1CFB3
:1008900081E00E940D016F3F7F4F8F4F9F4F61F3AB
:1008A0008E010F5F1F4F6E018FEBC81A8EEFD80AB3
:1008B000780180E00E940D01F701608371838283DB
:1008C000938381E00E940D01F70164837583868321
:1008D0009783F8E0EF0EF11CEC14FD0451F77894C7
:1008E00030E020E0F801C080D180E280F3804481D4
:1008F000558166817781FFEFCF16DF06EF06FF0691
:1009000031F04F3F8FEF58076807780719F41092BE
:100910001E02B5CFF90183E0F595E7958A95E1F7D9
:10092000E35FFD4F8081880FC416D506E606F70603
:1009300010F180832F5F3F4F085F1F4F2832310532
:1009400089F64091110220910D0280910E02280F2C
:100950003327331F80910F02280F311D8091100221
:10096000820F932F911D99274817190681F681E070
:1009700080931E022ECF8160DCCF8EBD00000DB4AF
:1009800007FEFDCF8EB50895CF93DF93C82FD62FE6
:1009900080E00E94DD028C2F80620E94BD04C82F7F
:1009A0008D2F0E94BD0481E00E94DD028C2FDF911B
:1009B000CF910895CF93C82F80E00E94DD028C2F45
:1009C0000E94BD048FEF0E94BD04C82F81E00E94E9
:1009D000DD028C2FCF910895CF93C82F86E00E941F
:1009E000DA04887F6C2F660F6F5F682B86E0CF91EB
:1009F0000C94C404CF93C82F80E00E94DD028C2F9A
:100A00000E94BD04C82F81E00E94DD028C2FCF918F
:100A100008950F931F93CF93DF93D82FC62F80E0B5
:100A20000E94DD028D2F80620E94BD04D82F00E15C
:100A300011E0C15030F0F80181918F010E94BD0496
:100A4000F8CF81E00E94DD028D2FDF91CF911F91C1
:100A50000F910895CF92DF92EF92FF920F931F9321
:100A6000CF93DF937C01C0912702DC2FC33008F0C5
:100A7000D2E080912802CD1B8111C0E080E00E946D
:100A8000DD0280EA0E94BD048701D15030F0F801F8
:100A900081918F010E94BD04F8CFC15020F080E009
:100AA0000E94BD04FACF81E00E94DD0281E00E9435
:100AB000F7028FB7F894C0906601D0906701E0907C
:100AC0006801F09069018FBF8FEF0E94FA04807374
:100AD00009F52FB7F8948091660190916701A09174
:100AE0006801B09169012FBF8C199D09AE09BF093A
:100AF00080369105A105B10538F381E080932F027E
:100B000080E0DF91CF911F910F91FF90EF90DF90E8
:100B1000CF90089580E00E94F70260E787E00E948E
:100B2000C40484FF04C081EE0E94FA04E9CF81E08E
:100B3000E8CF0F931F93CF93DF93EC0188819981C6
:100B4000009759F02A813B812617370730F081E062
:100B5000DF91CF911F910F9108958B016F5F7F4FB0
:100B60000E948A12009759F0998388831B830A8315
:100B70002C813D81232B59F7FC011082E8CF80E0C6
:100B8000E7CFEF92FF920F931F93CF93DF936115FF
:100B9000710541F480E0DF91CF911F910F91FF909B
:100BA000EF90089541155105B1F07B01EC010C81E6
:100BB0001D81040F151FB8010E949905882351F368
:100BC000288139818C819D81B701820F931F0E94FA
:100BD00050131D830C8381E0DECFCF93DF93EC01B4
:100BE00088819981009711F00E9401121982188260
:100BF0001D821C821B821A82DF91CF910895CF93B0
:100C0000DF93EC0141E050E068E271E00E94C10531
:100C1000811103C0CE010E94ED05CE01DF91CF917D
:100C20000895CF93DF93EC01FB01448155816081EE
:100C300071810E94C105811103C0CE010E94ED05A2
:100C4000CE01DF91CF910895EF92FF920F931F9302
:100C5000CF93DF93EC017B018A01BA010E949905D1
:100C600081110BC0CE010E94ED05CE01DF91CF9125
:100C70001F910F91FF90EF9008951D830C83B70192
:100C8000888199810E945013F0CFFB0101900020D0
:100C9000E9F73197AF01461B570B0C9424060F93CD
:100CA0001F93CF93DF93CDB7DEB729970FB6F89494
:100CB000DEBF0FBECDBF8C01862FF80111821082DE
:100CC00013821282158214824AE0BE016F5F7F4F49
:100CD00090E00E945F0DBE016F5F7F4FC8010E94D0
:100CE000450629960FB6F894DEBF0FBECDBFDF9143
:100CF000CF911F910F910895EF92FF920F931F9341
:100D0000CF93DF93CDB7DEB7A1970FB6F894DEBFD0
:100D10000FBECDBF7C01CB01BA01F7011182108259
:100D200013821282158214828E010F5F1F4F22E000
:100D300044E00E94410D009789F0BC01C7010E9468
:100D40004506A1960FB6F894DEBF0FBECDBFDF916A
:100D5000CF911F910F91FF90EF900895C7010E94CE
:100D6000ED05EFCFCF93DF93EC01FB0186179707DB
:100D700049F0608171816115710541F044815581AF
:100D80000E942406CE01DF91CF9108950E94ED05C7
:100D9000F9CFFC0180819181009711F00C94011230
:100DA00008951F920F920FB60F9211242F933F9325
:100DB0004F935F936F937F938F939F93AF93BF9363
:100DC000EF93FF938AE691E00E94CE01FF91EF91AD
:100DD000BF91AF919F918F917F916F915F914F9153
:100DE0003F912F910F900FBE0F901F9018951F925B
:100DF0000F920FB60F9211242F938F939F93EF931F
:100E0000FF93E0917A01F0917B018081E091800174
:100E1000F091810182FD1BC09081809183018F5FE1
:100E20008F7320918401821741F0E0918301F0E0FB
:100E3000E659FE4F958F80938301FF91EF919F912B
:100E40008F912F910F900FBE0F901F90189580815A
:100E5000F4CF1F920F920FB60F9211242F933F934E
:100E60008F939F93AF93BF93809166019091670199
:100E7000A0916801B091690130912A0123E0230F0C
:100E80002D3758F50196A11DB11D20932A0180939D
:100E9000660190936701A0936801B0936901809106
:100EA0002B0190912C01A0912D01B0912E01019662
:100EB000A11DB11D80932B0190932C01A0932D01B6
:100EC000B0932E01BF91AF919F918F913F912F9140
:100ED0000F900FBE0F901F90189526E8230F0296D3
:100EE000A11DB11DD2CF1F920F920FB60F921124E8
:100EF0002F933F934F935F936F937F938F939F9322
:100F0000AF93BF93EF93FF93809136019091370198
:100F10008093B2008091390190913A01A0913B01F8
:100F2000B0913C010196A11DB11D809339019093B0
:100F30003A01A0933B01B0933C018091390190911B
:100F40003A01A0913B01B0913C0140913201509196
:100F50003301609134017091350184179507A6071C
:100F6000B70710F18091380181111EC081E0809394
:100F700038018091390190913A01A0913B01B091E3
:100F80003C01841B950BA60BB70B80933901909302
:100F90003A01A0933B01B0933C01E0913001F09104
:100FA0003101099510923801FF91EF91BF91AF91F6
:100FB0009F918F917F916F915F914F913F912F9171
:100FC0000F900FBE0F901F901895EAE6F1E0138284
:100FD000128288EE93E0A0E0B0E084839583A6833C
:100FE000B7838AE191E09183808385EC90E09587D7
:100FF000848784EC90E09787868780EC90E0918BE3
:10100000808B81EC90E0938B828B82EC90E0958BCF
:10101000848B86EC90E0978B868B118E128E138ECC
:10102000148EE0E2F2E089E090E0918380838AE030
:1010300090E093838283168280E28783108685E026
:10104000868785E090E0A0E0B0E0848B958BA68B4E
:10105000B78B1186ADE0B2E088E015968C931597BA
:1010600086E116968C931697E6EBF1E0E4911796DD
:10107000EC931797E2EAF1E0E4911896EC93189755
:1010800040E85EE360E070E01D964D935D936D93E4
:101090007C935097E7E0F2E0118210821382128273
:1010A0001582148250E040E069E271E0CF010C94B7
:1010B0002406CF93DF93CDB7DEB7E2970FB6F8944F
:1010C000DEBF0FBECDBF789484B5826084BD84B589
:1010D000816084BD85B5826085BD85B5816085BD33
:1010E00080916E00816080936E00109281008091EB
:1010F0008100826080938100809181008160809373
:101100008100809180008160809380008091B10097
:1011100084608093B1008091B00081608093B000C2
:1011200080917A00846080937A0080917A00826056
:1011300080937A0080917A00816080937A00809118
:101140007A00806880937A001092C100E0917A0161
:10115000F0917B0182E08083E0917601F09177014C
:101160001082E0917801F091790180E18083109202
:101170008201E0917E01F0917F0186E08083E09121
:101180007C01F0917D01808180618083E0917C0110
:10119000F0917D01808188608083E0917C01F091F5
:1011A0007D01808180688083E0917C01F0917D01E8
:1011B00080818F7D808380912002909121022091F7
:1011C0002202309123028217930719F061E00E94F6
:1011D00023038091220290912302209120023091DA
:1011E00021022817390719F061E00E9423031FB775
:1011F000F89480912F01811127C0E4EAF1E08491F5
:10120000E8EBF1E09491E82FF0E0EE0FFF1FE058DB
:10121000FE4FA591B491EC91E92321F461E08AE0BD
:101220000E94AF0261E08AE00E9423038CB58061D6
:101230008CBD8CB580648CBD61E08DE00E94230381
:1012400061E08BE00E94230380912F018F5F8093E8
:101250002F011FBF80E00E94F70281E00E94DD02A3
:1012600065E070E080E090E00E9484036CE080E044
:101270000E94C4046FE584E00E94C40486E00E94DA
:10128000DA04877D182F10628BE990E0A0E0B0E0CF
:101290008093300290933102A0933202B0933302D4
:1012A000612F86E00E94C40486E00E94DA041813CD
:1012B00003C081E08093260286E00E94DA0486E083
:1012C0000E94DA0445E550E060E070E040933002AF
:1012D000509331026093320270933302682F677D1E
:1012E00086E00E94C40486E00E94DA0480E00E9446
:1012F000DD0280E50E94BD0483E70E94BD0481E019
:101300000E94DD0260E08DE10E94C40460E08CE197
:101310000E94C4041092280260E787E00E94C4047F
:101320006CE485E00E94C40482EE0E94FA0481EE1F
:101330000E94FA0480E00E94DA0481FD0BC0682F4D
:10134000626080E00E94C40465E070E080E090E0AC
:101350000E94840380E00E94DA04682F6E7F80E0A0
:101360000E94C40480E00E94EC0460912E028AE096
:101370000E94090560912E0280E10E94090560919A
:10138000270281E10E94C40480E00E94F70280915C
:101390003002909131020E9445018DE10E94DA04F1
:1013A00081FF09C080913002909131020E94450175
:1013B00081EE0E94FA0480E00E94DA04682F6E7FBA
:1013C00080E00E94C40482E00E94DA04EAE8F1E0CE
:1013D000E49161E070E001C0660FEA95EAF7682BDE
:1013E00082E00E94C40462E0809112020E94230302
:1013F0002FB7F8948091660190916701A0916801E0
:10140000B09169012FBF805D9740A109B109809318
:10141000160290931702A0931802B093190287E363
:1014200080931F0284EC99E0A0E0B0E08093320149
:1014300090933301A0933401B093350187E093E09A
:101440009093310180933001809170008E7F809362
:1014500070008091B0008C7F8093B0008091B100CB
:10146000877F8093B1008091B6008F7D8093B60016
:10147000809170008D7F809370008091B1008460B6
:101480008093B1008091B1008C7F8093B10086E0A1
:1014900090E09093370180933601109239011092B9
:1014A0003A0110923B0110923C0110923801809158
:1014B0003601909137018093B20080917000816075
:1014C0008093700000E411E021E4C22E30E0E32EAE
:1014D00030E0F32E809109011A8219821C821B824E
:1014E0001E821D828F831886BE01695F7F4FCE01E9
:1014F00001960E94450640910501509106016091B8
:10150000070170910801CE0107960E947C06409168
:101510000101509102016091030170910401CE011B
:1015200043960E947C061E861D86188A1F861A8A8C
:10153000198ABE016D5E7F4FCE010D960E94B206E4
:10154000BE01695F7F4FCE010D960E9411065C01BE
:10155000C98E1A8E41E050E0BE01675E7F4F0E9447
:10156000C105811103C0C5010E94ED05BE016F5F79
:101570007F4FC5010E941106BC0187E092E00E94E6
:10158000B206CE010D960E94C906CE0143960E9476
:10159000C906CE0107960E94C906CE0101960E9497
:1015A000C90640910B0250910C02609107027091A4
:1015B00008028AE691E00E94500160E082E00E9409
:1015C000230360E083E00E94230361E084E00E9443
:1015D000230361E085E00E94230360E087E00E942E
:1015E000230361E08EE00E94230361E08FE00E940C
:1015F000230361E080E10E94230361E081E10E9416
:1016000023038AE691E00E94AE011816190684F4BD
:1016100090E6A92E91E0B92E8AE691E00E948C0115
:10162000F50181935F01F6E6AF16F1E0BF06A1F781
:1016300087E00E948602892B09F0B7C0609165019E
:10164000CE0101960E944F0660916401CE0107967B
:101650000E944F0660916301CE010D960E944F06D5
:1016600060916201CE0143960E944F066091610134
:10167000CE0149960E944F0660916001CE01859689
:101680000E944F0618A21F8E1AA219A21CA21BA20A
:10169000BE016B5D7F4FCE014F960E94B206CE0118
:1016A0004F960E94FF05BE01675E7F4F0E941106A4
:1016B0000E94FF05BE016D5E7F4F0E9411060E94D1
:1016C000FF05BE01635F7F4F0E9411060E94FF0568
:1016D000BE01695F7F4F0E9411060E94FF05BE0197
:1016E0006F5F7F4F0E9411061CA61BA61EA61DA69B
:1016F00018AA1FA6BC01CE018B960E94B206CE018D
:101700004F960E94C906CE0185960E94C906CE0159
:1017100049960E94C906CE0143960E94C906CE0191
:101720000D960E94C906CE0107960E94C906CE01F9
:1017300001960E94C906AFA4B8A88FEFA816B806F4
:1017400031F0A114B10409F070C0109240011AAB3D
:1017500009AB82E00E948602892B09F072C083E007
:101760000E948602892B09F06CC080E00E94EC0484
:1017700080913D0161E0811101C060E08EE00E9436
:10178000AF0260E08FE00E94AF0260E080E10E9463
:10179000AF0260E081E10E94AF02CE01C1960E94DB
:1017A0002A05CE018B960E94C90684E480937C00B2
:1017B00080917A00806480937A0080917A0086FD1F
:1017C000FCCF90917800809179008927982789270C
:1017D000853691050CF48BC060E085E00E94AF0275
:1017E00082E48093090181E080933D0180913E0174
:1017F00090913F01019709F014C110923F0110929E
:101800003E010E94B603882359F0809113028B3069
:1018100038F08D3008F475C08551823008F4A6C0C8
:1018200060E070E080EC9FE788C06BA57CA5A50117
:1018300080E491E00E945713F501E05CFE4F1082B6
:1018400086CF82E00E948602019739F182E00E94F1
:101850008602892BA9F182E00E948602019709F095
:10186000A0CF83E00E948602019709F09ACF83E01F
:101870000E94EC0480913D01882309F47ECF60E052
:101880008EE00E94AF0260E08FE00E94AF0260E055
:1018900080E10E94AF0261E07DCF83E00E9486027A
:1018A000892BA1F681E00E94EC0480913D01882300
:1018B00009F463CF60E08EE00E94AF0261E062CF86
:1018C00083E00E948602019731F682E00E94EC04D8
:1018D00080913D01882309F450CF60E08EE00E94A2
:1018E000AF0260E08FE00E94AF0261E04FCF61E0A5
:1018F00085E00E94AF0283E48093090110923D01CC
:1019000075CF60910E0270E090E080E00E94C20FFF
:101910002DEC3CEC4CEC5DE30E94FD0F4B015C01B7
:1019200060910D0270E090E080E00E94C20F9B0188
:10193000AC01C501B4010E94F310609301017093E2
:10194000020180930301909304010E94B60388234F
:1019500041F0809113028C3009F46FC0C8F48B30D1
:1019600081F160E070E080EC9FE753C060910D0270
:1019700070910E0276276727762790E080E00E941C
:10198000C00F2DEC3CEC4CEC5DE30E94FD0FD5CF7D
:101990008551823030F7D0900F026D2D70E0762F98
:1019A000662766277F7780911002682B90E080E0A1
:1019B0000E94C00F2DEC3CEC4CEC5DE30E94FD0F4F
:1019C00058C060910F0270E090E080E00E94C00F6C
:1019D0004B015C01D0901002D7FE0AC0AC019B0104
:1019E00060E070E080E89FEB0E94F2104B015C0128
:1019F0006D2D6F7070E090E080E00E94C20F2DECC2
:101A00003CEC4CEC5DE30E94FD0FA50194010E94AB
:101A1000F310609305017093060180930701909382
:101A20000801E114F10409F455CD0E94BA0188239C
:101A300009F44ACD0E94000047CDD0900F026D2DD1
:101A400070E090E080E00E94C00F4B015C0160916B
:101A500010026F7070E090E080E00E94C20F2DECE9
:101A60003CEC4CEC5DE30E94FD0FA50194010E944B
:101A7000F310D7FECECF9058CCCF87E092E00C94F5
:101A8000C906EF920F931F93CF93DF93E80134E0E1
:101A900047FD34E1042E000C550B57FF03C0519550
:101AA00041955109E32E022F242FAE010E94790D9A
:101AB000CE01DF91CF911F910F91EF900895BB2739
:101AC000FB015527AA27880F991FAA1FA41710F0FA
:101AD000A41B83955051B9F7A05DAA3308F0A95D06
:101AE000A193009779F7B111B1931192CB010C94A6
:101AF000B00FA9E0B0E0EFE7FDE00C94C1106A017F
:101B0000F22EB02E102FFBE3AF2EA01608F41BE32D
:101B10001F5F012F27E0AE014F5F5F4F0E94D80E7D
:101B2000BC018981982F9970913009F43FC09BE2E4
:101B3000E1FC04C09E2D9170E0FC3AC05E2D507116
:101B4000E82FE87083FF46C084E0911101C083E074
:101B5000EF2DE81B8F1508F0E0E0D6018E2F20E274
:101B6000552351F1992329F0D6019C93C601019682
:101B70006C0196012D5F3F4FE2FE24C08EE4D6013A
:101B80008C9391E411969C93119712968C93D901A2
:101B90008E2F90E281111BC0E20FF32FF11D1082F6
:101BA0008EEF9FEF2996ECE00C94DD109DE2C6CFFE
:101BB00090E2C4CF2D9381508111FCCFCE0ED11C69
:101BC000E0E0D0CF8EE6D6018C9391E6DBCF9D93FB
:101BD0008150E0CF482F447082FF3DC084E09111D6
:101BE00001C083E08F1510F4EF2DE81BD6018E2F76
:101BF00020E2552309F1992329F0D6019C93C601CF
:101C000001966C0196012D5F3F4FE2FE1BC089E4F7
:101C1000D6018C938EE411968C93119786E41296DC
:101C20008C93D9018E2F90E2882309F4B5CF9D9330
:101C30008150FACF2D9381508111FCCFCE0ED11C53
:101C4000E0E0D9CF89E6D6018C938EE611968C938D
:101C5000119786E6E4CF9B0177FF02C030E020E0D9
:101C6000A1E0B0E0911102C0B0E0A0E0F90131962E
:101C7000AE0FBF1F8B2C912CBB2009F461C0540107
:101C8000EFEFAE1ABE0AAA0DBB1DFA161B0619F01D
:101C900014F04F2D4A1B511188C0E3FC59C0760146
:101CA000A42FB0E2A1114FC0C40ED11C992309F496
:101CB0005BC040E0D6011196F60190836D0155237B
:101CC00009F448C0012F060F9A81582F507184FFE4
:101CD00003C0913309F4015010160CF047C00930CD
:101CE00008F008E0EEE2FE2E5B01A01AB1088501C3
:101CF0009194819491082F3F320729F4D601FC92E8
:101D0000F60131966F016217730794F102171307FA
:101D10007CF5DB01A21BB30BAA24A394B12CAC0E5F
:101D2000BD1EAA0DBB1D11968C9121503109D60103
:101D3000119628153905F4F0F60180836D01DBCF8B
:101D4000B12CA12CA0CFF701B1937F01A150AACF54
:101D50009111B0CFD601942F50E302C05D93915002
:101D60009111FCCFC40ED11C40E0ACCF01E0BACF42
:101D700080E3DBCF6217730731F4963388F4953331
:101D800011F4552369F0F6018083FD01842F90E260
:101D9000811108C0A40FB11D1C9290E080E002CF19
:101DA00081E3F1CF91938150F3CF911183CF8ACF0B
:101DB000283008F027E03327DA01990F311D87FD1D
:101DC000916000966105710539F432602E5F3D9394
:101DD00030E32A95E1F708959F3F30F08038710590
:101DE000610509F03C5F3C5F3D93913008F08068ED
:101DF000911DDF93CF931F930F93FF92EF92192FB3
:101E0000987F9695E92F96959695E90FFF27EE53C3
:101E1000FF4F99273327EE24FF24A701E701059000
:101E20000894079428F4360FE71EF81E491F511D29
:101E3000660F771F881F991F0694A1F705900794D6
:101E400028F4E70EF81E491F561FC11D770F881F83
:101E5000991F661F0694A1F70590079428F4F80EC1
:101E6000491F561FC71FD11D880F991F661F771F57
:101E70000694A1F70590079420F4490F561FC71F39
:101E8000D81F990F661F771F881F0694A9F78491A2
:101E90001095177041F0D695C79557954795F794CB
:101EA000E7941A95C1F7E8E6F0E06894159015916B
:101EB00035916591959105907FE27395E118F10A4E
:101EC000430B560BC90BD009C0F7E10CF11E431FA1
:101ED000561FC91FD01D7EF4703311F48A95E6CFCA
:101EE000E894015030F0080F0AF40027021708F4B4
:101EF000202F2395022F7A3328F079E37D932A95BA
:101F0000E9F710C07D932A9589F606949795679511
:101F1000379517951794E118F10A430B560BC90B27
:101F2000D00998F023957E9173957A3308F070E389
:101F30007C932013B8F77E9170617D9330F0839588
:101F400071E37D9370E32A95E1F71124EF90FF9000
:101F50000F911F91CF91DF91992787FD909508955B
:101F6000DC01FC01672F71917723E1F7329704C000
:101F70007C916D9370836291AE17BF07C8F308958B
:101F8000E89409C097FB3EF4909580957095619513
:101F90007F4F8F4F9F4F9923A9F0F92F96E9BB27C9
:101FA0009395F695879577956795B795F111F8CF45
:101FB000FAF4BB0F11F460FF1BC06F5F7F4F8F4FB0
:101FC0009F4F16C0882311F096E911C0772321F0A6
:101FD0009EE8872F762F05C0662371F096E8862F3E
:101FE00070E060E02AF09A95660F771F881FDAF795
:101FF000880F9695879597F908950E9410100C9474
:1020000081100E94731038F00E947A1020F09523FE
:1020100011F00C946A100C94701011240C94B510EB
:102020000E94921070F3959FC1F3950F50E0551FD9
:10203000629FF001729FBB27F00DB11D639FAA271D
:10204000F00DB11DAA1F649F6627B00DA11D661F6C
:10205000829F2227B00DA11D621F739FB00DA11D8D
:10206000621F839FA00D611D221F749F3327A00D47
:10207000611D231F849F600D211D822F762F6A2FE3
:1020800011249F5750409AF0F1F088234AF0EE0F48
:10209000FF1FBB1F661F771F881F91505040A9F775
:1020A0009E3F510580F00C946A100C94B5105F3F70
:1020B000E4F3983ED4F3869577956795B795F795B1
:1020C000E7959F5FC1F7FE2B880F911D9695879529
:1020D00097F9089597F99F6780E870E060E00895A8
:1020E0009FEF80EC089500240A9416161706180630
:1020F0000906089500240A9412161306140605060C
:102100000895092E0394000C11F4882352F0BB0F9C
:1021100040F4BF2B11F460FF04C06F5F7F4F8F4FFF
:102120009F4F089557FD9058440F551F59F05F3F3A
:1021300071F04795880F97FB991F61F09F3F79F0E9
:1021400087950895121613061406551FF2CF46956B
:10215000F1DF08C0161617061806991FF1CF8695ED
:102160007105610508940895E894BB2766277727D1
:10217000CB0197F908952F923F924F925F926F9201
:102180007F928F929F92AF92BF92CF92DF92EF9207
:10219000FF920F931F93CF93DF93CDB7DEB7CA1B88
:1021A000DB0B0FB6F894DEBF0FBECDBF09942A88B3
:1021B000398848885F846E847D848C849B84AA845B
:1021C000B984C884DF80EE80FD800C811B81AA81E8
:1021D000B981CE0FD11D0FB6F894DEBF0FBECDBFB3
:1021E000ED0108955058BB27AA270E940A110C94AC
:1021F00081100E94731038F00E947A1020F039F498
:102200009F3F19F426F40C9470100EF4E095E7FB50
:102210000C946A10E92F0E94921058F3BA176207C3
:1022200073078407950720F079F4A6F50C94B41091
:102230000EF4E0950B2EBA2FA02D0B01B9019001E1
:102240000C01CA01A0011124FF27591B99F0593F25
:1022500050F4503E68F11A16F040A22F232F342F6D
:102260004427585FF3CF469537952795A795F040BB
:102270005395C9F77EF41F16BA0B620B730B840BD0
:10228000BAF09150A1F0FF0FBB1F661F771F881F88
:10229000C2F70EC0BA0F621F731F841F48F48795E0
:1022A00077956795B795F7959E3F08F0B0CF9395D2
:1022B000880F08F09927EE0F979587950895EE0FF0
:1022C000FF1F0590F491E02D09940F931F93CF9376
:1022D000DF938230910510F482E090E0E0913A02C1
:1022E000F0913B0230E020E0B0E0A0E0309799F4BC
:1022F0002115310509F44AC0281B390B243031055A
:10230000D8F58A819B816115710589F1FB01938361
:102310008283FE0111C040815181028113814817DF
:102320005907E0F04817590799F4109761F0129691
:102330000C93129713961C933296CF01DF91CF9195
:102340001F910F91089500933A0210933B02F4CF2E
:102350002115310551F04217530738F0A901DB016F
:102360009A01BD01DF01F801C1CFEF01F9CF9093D0
:102370003B0280933A02CDCFFE01E20FF31F81931F
:1023800091932250310939832883D7CF2091380285
:1023900030913902232B41F420910C0130910D0131
:1023A000309339022093380220910A0130910B01B9
:1023B0002115310541F42DB73EB740910E015091E2
:1023C0000F01241B350BE0913802F0913902E2171E
:1023D000F307A0F42E1B3F0B2817390778F0AC0148
:1023E0004E5F5F4F2417350748F04E0F5F1F509325
:1023F000390240933802819391939FCFF0E0E0E05F
:102400009CCFCF93DF930097E9F0FC0132971382C2
:102410001282A0913A02B0913B02ED0130E020E03F
:102420001097A1F420813181820F931F20913802EF
:10243000309139022817390709F061C0F093390249
:10244000E0933802DF91CF910895EA01CE17DF07BC
:10245000E8F54A815B819E0141155105B1F7E9011B
:10246000FB83EA8349915991C40FD51FEC17FD07EF
:1024700061F4808191810296840F951FE90199830F
:102480008883828193819B838A83F0E0E0E01296C7
:102490008D919C9113970097B9F52D913C911197CF
:1024A000CD010296820F931F20913802309139029C
:1024B0002817390739F6309751F510923B021092E0
:1024C0003A02B0933902A0933802BCCFD383C283BF
:1024D00040815181840F951FC817D90761F44E5F61
:1024E0005F4F88819981480F591F518340838A81AA
:1024F0009B81938382832115310509F0B0CFF0933E
:102500003B02E0933A029ECFFD01DC01C0CF138273
:102510001282D7CFB0E0A0E0E0E9F2E10C94BD1068
:102520008C01009751F4CB010E9465118C01C80108
:10253000CDB7DEB7E0E10C94D910FC01E60FF71F30
:102540009C0122503109E217F30708F49DC0D9011C
:10255000CD91DC911197C617D70798F0C530D105FA
:1025600030F3CE0104978617970708F3C61BD70BE5
:102570002297C193D1936D937C93CF010E94011256
:10258000D6CF5B01AC1ABD0A4C018C0E9D1EA091EA
:102590003A02B0913B02512C412CF12CE12C1097C6
:1025A00031F580913802909139028815990509F02A
:1025B0005CC04616570608F058C080910A019091F9
:1025C0000B01009741F48DB79EB740910E015091D9
:1025D0000F01841B950BE817F90708F055C0F0931D
:1025E0003902E0933802F90171836083A0CF8D91A5
:1025F0009C91119712966C90129713967C9013975A
:10260000A815B90559F56C0142E0C40ED11CCA14D5
:10261000DB0420F1AC014A195B09DA011296159727
:1026200080F06282738251834083D9016D937C93E1
:10263000E114F10471F0D7011396FC93EE93129715
:1026400076CF22968C0F9D1FF90191838083F30131
:10265000EFCFF0933B02E0933A0269CF4816590658
:1026600008F42C017D01D3019ACFCB010E946511A2
:102670007C01009749F0AE01B8010E944713C801E0
:102680000E940112870153CF10E000E050CFFB0100
:10269000DC0102C001900D9241505040D8F70895DE
:1026A000FB01DC0101900D920020E1F70895FB0190
:1026B000DC014150504048F001900D920020C9F7D4
:1026C00001C01D9241505040E0F7089510E0C2EE65
:1026D000D0E004C0FE010E945F112196C33ED107E5
:1026E000C9F7F894FFCF01A4704541B81E63424278
:1026F00000003C02800031333234333500000000EA
:10270000F00150017D013D02AE018C01A0012F00BE
:107E0000112484B714BE81FFF0D085E080938100F7
:107E100082E08093C00088E18093C10086E0809377
:107E2000C20080E18093C4008EE0C9D0259A86E02C
:107E300020E33CEF91E0309385002093840096BBD3
:107E4000B09BFECF1D9AA8958150A9F7CC24DD24C4
:107E500088248394B5E0AB2EA1E19A2EF3E0BF2EE7
:107E6000A2D0813461F49FD0082FAFD0023811F036
:107E7000013811F484E001C083E08DD089C08234E0
:107E800011F484E103C0853419F485E0A6D080C0E4
:107E9000853579F488D0E82EFF2485D0082F10E0AE
:107EA000102F00270E291F29000F111F8ED06801E7
:107EB0006FC0863521F484E090D080E0DECF843638
:107EC00009F040C070D06FD0082F6DD080E0C81688
:107ED00080E7D80618F4F601B7BEE895C0E0D1E017
:107EE00062D089930C17E1F7F0E0CF16F0E7DF06D8
:107EF00018F0F601B7BEE89568D007B600FCFDCFD4
:107F0000A601A0E0B1E02C9130E011968C91119780
:107F100090E0982F8827822B932B1296FA010C0160
:107F200087BEE89511244E5F5F4FF1E0A038BF0790
:107F300051F7F601A7BEE89507B600FCFDCF97BE46
:107F4000E89526C08437B1F42ED02DD0F82E2BD052
:107F50003CD0F601EF2C8F010F5F1F4F84911BD097
:107F6000EA94F801C1F70894C11CD11CFA94CF0C13
:107F7000D11C0EC0853739F428D08EE10CD085E9AC
:107F80000AD08FE07ACF813511F488E018D01DD067
:107F900080E101D065CF982F8091C00085FFFCCF94
:107FA0009093C60008958091C00087FFFCCF809118
:107FB000C00084FD01C0A8958091C6000895E0E648
:107FC000F0E098E1908380830895EDDF803219F02E
:107FD00088E0F5DFFFCF84E1DECF1F93182FE3DFCA
:107FE0001150E9F7F2DF1F91089580E0E8DFEE27F6
:047FF000FF270994CA
:027FFE00040479
:00000001FF
